{
  "contractName": "FoodDetails",
  "abi": [
    {
      "constant": true,
      "inputs": [
        {
          "name": "",
          "type": "address"
        }
      ],
      "name": "foodDetails",
      "outputs": [
        {
          "name": "grains",
          "type": "string"
        },
        {
          "name": "waterUsage",
          "type": "string"
        },
        {
          "name": "cultivationMethod",
          "type": "string"
        },
        {
          "name": "imageUrl",
          "type": "string"
        },
        {
          "name": "farmLocation",
          "type": "string"
        },
        {
          "name": "organicFertilizer",
          "type": "string"
        },
        {
          "name": "supplierInfo",
          "type": "string"
        },
        {
          "name": "soilType",
          "type": "string"
        }
      ],
      "payable": false,
      "stateMutability": "view",
      "type": "function"
    },
    {
      "constant": false,
      "inputs": [
        {
          "components": [
            {
              "name": "grains",
              "type": "string"
            },
            {
              "name": "waterUsage",
              "type": "string"
            },
            {
              "name": "cultivationMethod",
              "type": "string"
            },
            {
              "name": "imageUrl",
              "type": "string"
            },
            {
              "name": "farmLocation",
              "type": "string"
            },
            {
              "name": "organicFertilizer",
              "type": "string"
            },
            {
              "name": "supplierInfo",
              "type": "string"
            },
            {
              "name": "soilType",
              "type": "string"
            }
          ],
          "name": "params",
          "type": "tuple"
        }
      ],
      "name": "setFoodDetails",
      "outputs": [],
      "payable": false,
      "stateMutability": "nonpayable",
      "type": "function"
    }
  ],
  "bytecode": "0x608060405234801561001057600080fd5b50610c55806100206000396000f3fe608060405260043610610046576000357c0100000000000000000000000000000000000000000000000000000000900480635950bd751461004b578063765404311461008f575b600080fd5b34801561005757600080fd5b50610072600480360361006d91908101906109dc565b6100b8565b604051610086989796959493929190610a7c565b60405180910390f35b34801561009b57600080fd5b506100b660048036036100b19190810190610a05565b6105c0565b005b6000602052806000526040600020600091509050806000018054600181600116156101000203166002900480601f0160208091040260200160405190810160405280929190818152602001828054600181600116156101000203166002900480156101645780601f1061013957610100808354040283529160200191610164565b820191906000526020600020905b81548152906001019060200180831161014757829003601f168201915b505050505090806001018054600181600116156101000203166002900480601f0160208091040260200160405190810160405280929190818152602001828054600181600116156101000203166002900480156102025780601f106101d757610100808354040283529160200191610202565b820191906000526020600020905b8154815290600101906020018083116101e557829003601f168201915b505050505090806002018054600181600116156101000203166002900480601f0160208091040260200160405190810160405280929190818152602001828054600181600116156101000203166002900480156102a05780601f10610275576101008083540402835291602001916102a0565b820191906000526020600020905b81548152906001019060200180831161028357829003601f168201915b505050505090806003018054600181600116156101000203166002900480601f01602080910402602001604051908101604052809291908181526020018280546001816001161561010002031660029004801561033e5780601f106103135761010080835404028352916020019161033e565b820191906000526020600020905b81548152906001019060200180831161032157829003601f168201915b505050505090806004018054600181600116156101000203166002900480601f0160208091040260200160405190810160405280929190818152602001828054600181600116156101000203166002900480156103dc5780601f106103b1576101008083540402835291602001916103dc565b820191906000526020600020905b8154815290600101906020018083116103bf57829003601f168201915b505050505090806005018054600181600116156101000203166002900480601f01602080910402602001604051908101604052809291908181526020018280546001816001161561010002031660029004801561047a5780601f1061044f5761010080835404028352916020019161047a565b820191906000526020600020905b81548152906001019060200180831161045d57829003601f168201915b505050505090806006018054600181600116156101000203166002900480601f0160208091040260200160405190810160405280929190818152602001828054600181600116156101000203166002900480156105185780601f106104ed57610100808354040283529160200191610518565b820191906000526020600020905b8154815290600101906020018083116104fb57829003601f168201915b505050505090806007018054600181600116156101000203166002900480601f0160208091040260200160405190810160405280929190818152602001828054600181600116156101000203166002900480156105b65780601f1061058b576101008083540402835291602001916105b6565b820191906000526020600020905b81548152906001019060200180831161059957829003601f168201915b5050505050905088565b6101006040519081016040528082600001518152602001826020015181526020018260400151815260200182606001518152602001826080015181526020018260a0015181526020018260c0015181526020018260e001518152506000803373ffffffffffffffffffffffffffffffffffffffff1673ffffffffffffffffffffffffffffffffffffffff1681526020019081526020016000206000820151816000019080519060200190610675929190610747565b506020820151816001019080519060200190610692929190610747565b5060408201518160020190805190602001906106af929190610747565b5060608201518160030190805190602001906106cc929190610747565b5060808201518160040190805190602001906106e9929190610747565b5060a0820151816005019080519060200190610706929190610747565b5060c0820151816006019080519060200190610723929190610747565b5060e0820151816007019080519060200190610740929190610747565b5090505050565b828054600181600116156101000203166002900490600052602060002090601f016020900481019282601f1061078857805160ff19168380011785556107b6565b828001600101855582156107b6579182015b828111156107b557825182559160200191906001019061079a565b5b5090506107c391906107c7565b5090565b6107e991905b808211156107e55760008160009055506001016107cd565b5090565b90565b60006107f88235610bb6565b905092915050565b600082601f830112151561081357600080fd5b813561082661082182610b5f565b610b32565b9150808252602083016020830185838301111561084257600080fd5b61084d838284610bc8565b50505092915050565b6000610100828403121561086957600080fd5b610874610100610b32565b9050600082013567ffffffffffffffff81111561089057600080fd5b61089c84828501610800565b600083015250602082013567ffffffffffffffff8111156108bc57600080fd5b6108c884828501610800565b602083015250604082013567ffffffffffffffff8111156108e857600080fd5b6108f484828501610800565b604083015250606082013567ffffffffffffffff81111561091457600080fd5b61092084828501610800565b606083015250608082013567ffffffffffffffff81111561094057600080fd5b61094c84828501610800565b60808301525060a082013567ffffffffffffffff81111561096c57600080fd5b61097884828501610800565b60a08301525060c082013567ffffffffffffffff81111561099857600080fd5b6109a484828501610800565b60c08301525060e082013567ffffffffffffffff8111156109c457600080fd5b6109d084828501610800565b60e08301525092915050565b6000602082840312156109ee57600080fd5b60006109fc848285016107ec565b91505092915050565b600060208284031215610a1757600080fd5b600082013567ffffffffffffffff811115610a3157600080fd5b610a3d84828501610856565b91505092915050565b6000610a5182610b8b565b808452610a65816020860160208601610bd7565b610a6e81610c0a565b602085010191505092915050565b6000610100820190508181036000830152610a97818b610a46565b90508181036020830152610aab818a610a46565b90508181036040830152610abf8189610a46565b90508181036060830152610ad38188610a46565b90508181036080830152610ae78187610a46565b905081810360a0830152610afb8186610a46565b905081810360c0830152610b0f8185610a46565b905081810360e0830152610b238184610a46565b90509998505050505050505050565b6000604051905081810181811067ffffffffffffffff82111715610b5557600080fd5b8060405250919050565b600067ffffffffffffffff821115610b7657600080fd5b601f19601f8301169050602081019050919050565b600081519050919050565b600073ffffffffffffffffffffffffffffffffffffffff82169050919050565b6000610bc182610b96565b9050919050565b82818337600083830152505050565b60005b83811015610bf5578082015181840152602081019050610bda565b83811115610c04576000848401525b50505050565b6000601f19601f830116905091905056fea265627a7a723058200fa74a5d86af95b0dfc1272f69adba46ba805dcff462f5fa076f63debb429add6c6578706572696d656e74616cf50037",
  "source": "pragma solidity >=0.4.22 <0.9.0;\r\n\r\npragma experimental ABIEncoderV2;\r\n\r\ncontract FoodDetails {\r\n    // Define a struct to hold food details\r\n    struct Food {\r\n        string grains;\r\n        string waterUsage;\r\n        string cultivationMethod;\r\n        string imageUrl;\r\n        string farmLocation;\r\n        string organicFertilizer;\r\n        string supplierInfo;\r\n        string soilType;\r\n    }\r\n\r\n    // Define a mapping to store food details for each user address\r\n    mapping(address => Food) public foodDetails;\r\n\r\n    // Define a struct for the parameters\r\n    struct FoodParameters {\r\n        string grains;\r\n        string waterUsage;\r\n        string cultivationMethod;\r\n        string imageUrl;\r\n        string farmLocation;\r\n        string organicFertilizer;\r\n        string supplierInfo;\r\n        string soilType;\r\n    }\r\n\r\n    // Function to set food details\r\n    function setFoodDetails(FoodParameters memory params) public {\r\n        // Store the food details for the sender's address\r\n        foodDetails[msg.sender] = Food(\r\n            params.grains,\r\n            params.waterUsage,\r\n            params.cultivationMethod,\r\n            params.imageUrl,\r\n            params.farmLocation,\r\n            params.organicFertilizer,\r\n            params.supplierInfo,\r\n            params.soilType\r\n        );\r\n    }\r\n}\r\n",
  "sourcePath": "D:\\Project\\organicTrace-II\\final\\contracts\\FoodDetails.sol",
  "compiler": {
    "name": "solc",
    "version": "0.5.1+commit.c8a2cb62.Emscripten.clang"
  },
  "schemaVersion": "3.4.16",
  "updatedAt": "2024-05-01T07:08:02.831Z",
  "networkType": "ethereum",
  "devdoc": {
    "methods": {}
  },
  "userdoc": {
    "methods": {}
  }
}