{
  "contractName": "FoodDetails",
  "abi": [
    {
      "constant": true,
      "inputs": [
        {
          "name": "",
          "type": "address"
        }
      ],
      "name": "foodDetails",
      "outputs": [
        {
          "name": "grains",
          "type": "string"
        },
        {
          "name": "waterUsage",
          "type": "string"
        },
        {
          "name": "cultivationMethod",
          "type": "string"
        },
        {
          "name": "imageUrl",
          "type": "string"
        }
      ],
      "payable": false,
      "stateMutability": "view",
      "type": "function"
    },
    {
      "constant": false,
      "inputs": [
        {
          "name": "_grains",
          "type": "string"
        },
        {
          "name": "_waterUsage",
          "type": "string"
        },
        {
          "name": "_cultivationMethod",
          "type": "string"
        },
        {
          "name": "_imageUrl",
          "type": "string"
        }
      ],
      "name": "setFoodDetails",
      "outputs": [],
      "payable": false,
      "stateMutability": "nonpayable",
      "type": "function"
    }
  ],
  "bytecode": "0x608060405234801561001057600080fd5b50610924806100206000396000f3fe608060405260043610610046576000357c0100000000000000000000000000000000000000000000000000000000900480635950bd751461004b5780639231738814610259575b600080fd5b34801561005757600080fd5b5061009a6004803603602081101561006e57600080fd5b81019080803573ffffffffffffffffffffffffffffffffffffffff1690602001909291905050506104e6565b6040518080602001806020018060200180602001858103855289818151815260200191508051906020019080838360005b838110156100e65780820151818401526020810190506100cb565b50505050905090810190601f1680156101135780820380516001836020036101000a031916815260200191505b50858103845288818151815260200191508051906020019080838360005b8381101561014c578082015181840152602081019050610131565b50505050905090810190601f1680156101795780820380516001836020036101000a031916815260200191505b50858103835287818151815260200191508051906020019080838360005b838110156101b2578082015181840152602081019050610197565b50505050905090810190601f1680156101df5780820380516001836020036101000a031916815260200191505b50858103825286818151815260200191508051906020019080838360005b838110156102185780820151818401526020810190506101fd565b50505050905090810190601f1680156102455780820380516001836020036101000a031916815260200191505b509850505050505050505060405180910390f35b34801561026557600080fd5b506104e46004803603608081101561027c57600080fd5b810190808035906020019064010000000081111561029957600080fd5b8201836020820111156102ab57600080fd5b803590602001918460018302840111640100000000831117156102cd57600080fd5b91908080601f016020809104026020016040519081016040528093929190818152602001838380828437600081840152601f19601f8201169050808301925050505050505091929192908035906020019064010000000081111561033057600080fd5b82018360208201111561034257600080fd5b8035906020019184600183028401116401000000008311171561036457600080fd5b91908080601f016020809104026020016040519081016040528093929190818152602001838380828437600081840152601f19601f820116905080830192505050505050509192919290803590602001906401000000008111156103c757600080fd5b8201836020820111156103d957600080fd5b803590602001918460018302840111640100000000831117156103fb57600080fd5b91908080601f016020809104026020016040519081016040528093929190818152602001838380828437600081840152601f19601f8201169050808301925050505050505091929192908035906020019064010000000081111561045e57600080fd5b82018360208201111561047057600080fd5b8035906020019184600183028401116401000000008311171561049257600080fd5b91908080601f016020809104026020016040519081016040528093929190818152602001838380828437600081840152601f19601f820116905080830192505050505050509192919290505050610776565b005b6000602052806000526040600020600091509050806000018054600181600116156101000203166002900480601f0160208091040260200160405190810160405280929190818152602001828054600181600116156101000203166002900480156105925780601f1061056757610100808354040283529160200191610592565b820191906000526020600020905b81548152906001019060200180831161057557829003601f168201915b505050505090806001018054600181600116156101000203166002900480601f0160208091040260200160405190810160405280929190818152602001828054600181600116156101000203166002900480156106305780601f1061060557610100808354040283529160200191610630565b820191906000526020600020905b81548152906001019060200180831161061357829003601f168201915b505050505090806002018054600181600116156101000203166002900480601f0160208091040260200160405190810160405280929190818152602001828054600181600116156101000203166002900480156106ce5780601f106106a3576101008083540402835291602001916106ce565b820191906000526020600020905b8154815290600101906020018083116106b157829003601f168201915b505050505090806003018054600181600116156101000203166002900480601f01602080910402602001604051908101604052809291908181526020018280546001816001161561010002031660029004801561076c5780601f106107415761010080835404028352916020019161076c565b820191906000526020600020905b81548152906001019060200180831161074f57829003601f168201915b5050505050905084565b608060405190810160405280858152602001848152602001838152602001828152506000803373ffffffffffffffffffffffffffffffffffffffff1673ffffffffffffffffffffffffffffffffffffffff16815260200190815260200160002060008201518160000190805190602001906107f2929190610853565b50602082015181600101908051906020019061080f929190610853565b50604082015181600201908051906020019061082c929190610853565b506060820151816003019080519060200190610849929190610853565b5090505050505050565b828054600181600116156101000203166002900490600052602060002090601f016020900481019282601f1061089457805160ff19168380011785556108c2565b828001600101855582156108c2579182015b828111156108c15782518255916020019190600101906108a6565b5b5090506108cf91906108d3565b5090565b6108f591905b808211156108f15760008160009055506001016108d9565b5090565b9056fea165627a7a72305820b85f80388adcc66926e469ee3ced92290c0f6986e4fec3f7291c762ee206774b0029",
  "source": "// SPDX-License-Identifier: MIT\npragma solidity >=0.4.22 <0.9.0;\n\ncontract FoodDetails {\n    // Define a struct to hold food details\n    struct Food {\n        string grains;\n        string waterUsage;\n        string cultivationMethod;\n        string imageUrl;\n    }\n\n    // Define a mapping to store food details for each user address\n    mapping(address => Food) public foodDetails;\n\n    // Function to set food details\n    function setFoodDetails(string memory _grains, string memory _waterUsage, string memory _cultivationMethod, string memory _imageUrl) public {\n        // Store the food details for the sender's address\n        foodDetails[msg.sender] = Food(_grains, _waterUsage, _cultivationMethod, _imageUrl);\n    }\n}\n",
  "sourcePath": "/Users/abdursmac/Desktop/final/contracts/FoodDetails.sol",
  "compiler": {
    "name": "solc",
    "version": "0.5.1+commit.c8a2cb62.Emscripten.clang"
  },
  "schemaVersion": "3.4.16",
  "updatedAt": "2024-03-06T15:43:41.499Z",
  "networkType": "ethereum",
  "devdoc": {
    "methods": {}
  },
  "userdoc": {
    "methods": {}
  }
}